:020000020000FC
:100000001CC018C017C016C015C014C013C013C040
:1000100011C010C00FC00EC00DC00CC00EC00AC071
:1000200009C008C007C006C005C004C003C002C0A4
:1000300001C000C018952BD018950FE308B907B977
:1000400000E00BB90FEF0AB90FEF0DBF04E00EBFD0
:1000500000E20093B6000091B60003FDFCCF0FE76D
:100060000093B30002E0009370000091B60001FD20
:10007000FCCF02E00093B0000091B60000FDFCCF81
:1000800004E00093B10078948895FECF0895FEDFD8
:020090000895D1
:00000001FF
