S0100000754368726F6E6F732E73726563C3
S113000019C033C032C031C030C02FC02EC07FC031
S11300102CC02BC02AC029C028C027C026C025C098
S113002024C023C022C021C020C01FC01EC01DC0C8
S11300301CC01BC011241FBECFEFD2E0DEBFCDBF5A
S113004011E0A0E0B1E0E0E0F2E002C005900D9222
S1130050A630B107D9F721E0A6E0B1E001C01D92B6
S1130060AC30B207E1F702D0C9C0CACF8FE388B978
S113007087B91BB88FEF8AB981E180930A0189E0BF
S1130080809306018DE18093080182E080930B0147
S11300908BE18093070188E18093090183B7816034
S11300A083BF8CED8093B300E0E7F0E08081826051
S11300B08083E0EBF0E0808182608083E1EBF0E01C
S11300C0808187608083789461E070E04FE3E0E0B2
S11300D0F1E020E030E0CB01022E02C0880F991F2E
S11300E00A94E2F780958F7388B981918BB984E182
S11300F090E00197F1F71BB848B984E190E00197CB
S1130100F1F72F5F3F4F2630310529F7E0CF1F92DB
S11301100F920FB60F9211242F933F934F935F9337
S11301208F939F93EF93FF93809109018F5F8C339B
S113013019F08093090116C01092090180910701FA
S11301408F5F8C3319F0809307010CC01092070164
S113015080910B018F5F883119F080930B0102C0ED
S113016010920B0120910901E0E0F1E08DEC289F51
S1130170912D112496959695969530E1939FA00123
S11301801124990F392F330F330F930F291B242B6D
S1130190258320910701289F912D112496959695EA
S11301A0969530E1939FA0011124990F392F330FB5
S11301B0330F930F291B242B248390910B01989FB9
S11301C0812D112486958695869540E1849F900122
S11301D01124880F382F330F330F830F981B922B62
S11301E09383FF91EF919F918F915F914F913F91F5
S11301F02F910F900FBE0F901F901895F894FFCF7A
S1090200FFFFFFAEA4A203
S9030000FC
