S0100000754368726F6E6F732E73726563C3
S113000026C040C03FC03EC03DC03CC03BC04CC108
S113001039C038C037C036C035C034C033C032C030
S113002031C030C02FC02EC02DC02CC02BC02AC060
S113003029C028C080C0888C84C8CCC4484CA0E0A7
S1130040A8ACA4E8ECE4686CA2E24EAAAEA6112423
S11300501FBECFEFD2E0DEBFCDBF11E0A0E0B1E024
S1130060EEEBF4E002C005900D92A631B107D9F78A
S113007022E0A6E1B1E001C01D92AC32B207E1F783
S1130080BAD01BC2BDCF9DEC899F912D11249695AA
S11300909695969520E1929FA0011124990F292FFE
S11300A0220F220F920F891B842B089583B1809510
S11300B0982F9770809116018927C1F1682F70E0FD
S11300C080FD0EC080E08F5F482F50E09B01082E1A
S11300D002C0359527950A94E2F720FFF4CF02C0B9
S11300E040E050E090931601892F90E0042E02C066
S11300F0959587950A94E2F780FF0CC080911D01C5
S11301009BE0899F400D511D1124FA01EC5DFE4FC7
S113011085810BC080911D019BE0899F400D511D7D
S11301201124FA01EC5DFE4F808538D10895E7E192
S1130130F1E020E030E090E0AC01022E02C05595E1
S113014047950A94E2F740FD10822F5F3F4F3196A6
S11301502630310589F70895CF93C82F80FF05C055
S11301608091220190DF80931C01C1FF05C0809122
S1130170200189DF80931B01C2FF05C08091230108
S113018082DF80931A01C3FF05C0809121017BDFC8
S113019080931901C4FF05C080911F0174DF80930F
S11301A01801C5FF05C080911E016DDF8093170102
S11301B0CF910895CF93DF93FC0101900020E9F7DC
S11301C03197E81BE73008F0E6E0EE2389F0DC0124
S11301D0C7E1D1E0E150F0E031968E0F9F1FED9121
S11301E0F0E0ED52F040E491E993A817B907B9F7AC
S11301F0DF91CF9108958FE388B987B91BB88FEF4A
S11302008AB985B984B98FE392DF81E180931E01B5
S113021089E080931F018DE18093210182E0809326
S113022023018BE18093200188E18093220183B72D
S1130230816083BF8CED8093B300E0E7F0E08081C0
S113024082608083E0EBF0E0808182608083E1EB78
S1130250F0E0808187608083B0D081E09FD0789483
S1130260C1E0D0E01FE3E7E1F1E020E030E0CE01BF
S1130270022E02C0880F991F0A94E2F780958F73AB
S113028088B981918BB984E190E00197F1F71BB8AB
S113029018B984E190E00197F1F72F5F3F4F2630C2
S11302A0310529F703DFDFCF1F920F920FB60F92AC
S11302B011242F933F934F935F936F937F938F9367
S11302C09F93AF93BF93EF93FF93809122018F5F2E
S11302D08C3319F08093220116C010922201809170
S11302E020018F5F8C3319F0809320010CC0109291
S11302F02001809123018F5F883119F080932301BD
S113030002C0109223018091000126DFFF91EF913A
S1130310BF91AF919F918F917F916F915F914F9119
S11303203F912F910F900FBE0F901F901895089535
S1130330109200018FE3FBDE809100010DDF089530
S113034086E0809300018FE3F2DE8091000104DFF8
S113035008958FE380930001FFDE08951092000159
S11303608FE3E5DE81E091E025DF0895109200013E
S11303708FE3DDDE85E091E01DDF0895109200013A
S11303808FE3D5DE89E091E015DF08951092000136
S11303908FE3CDDE8FE091E00DDF08958F3F61F0B4
S11303A080931D019BE0899FF0011124EC5DFE4FB9
S11303B00190F081E02D09950895E4E2F1E04CE22A
S11303C052E027E931E08FEF3183208385838683F0
S11303D087838087818782873B96E417F507A1F797
S11303E0E4E2F1E088E991E09183808381E087830E
S11303F020EA31E034872387108A92E0928B29EA3D
S113040031E0378B268B838F83E0858F2EEA31E0B2
S113041032A321A396A395E097A324E020A726EB7B
S113042031E035A724A781AB2EEB31E030AF27AB09
S113043084AF27E025AF86E086AF46EC51E05093C9
S113044067014093660190936B0187E991E0909373
S113045072018093710139E03093780190937D01AA
S113046080937C012093810190938801809387017C
S113047030938D0190939301809392013BE03093EC
S1130480980190939E0180939D013CE03093A301D9
S11304909093A9018093A8013DE03093AE0190931D
S11304A0B4018093B3013EE03093B9019093BF014E
S11104B08093BE012093C4010895F894FFCFF9
S11304BE3F66756E0073657400736E616B65006FD5
S10904CE74686572000071
S9030000FC
