S0100000754368726F6E6F732E73726563C3
S113000026C040C03FC03EC03DC03CC03BC04CC108
S113001039C038C037C036C035C034C033C032C030
S113002031C030C02FC02EC02DC02CC02BC02AC060
S113003029C028C080C0888C84C8CCC4484CA0E0A7
S1130040A8ACA4E8ECE4686CA2E24EAAAEA6112423
S11300501FBECFEFD2E0DEBFCDBF11E0A0E0B1E024
S1130060ECEDF4E002C005900D92AA31B107D9F786
S113007022E0AAE1B1E001C01D92A033B207E1F78A
S1130080BAD02AC2BDCF9DEC899F912D112496959B
S11300909695969520E1929FA0011124990F292FFE
S11300A0220F220F920F891B842B089583B1809510
S11300B0982F977080911A018927C1F1682F70E0F9
S11300C080FD0EC080E08F5F482F50E09B01082E1A
S11300D002C0359527950A94E2F720FFF4CF02C0B9
S11300E040E050E090931A01892F90E0042E02C062
S11300F0959587950A94E2F780FF0CC080912101C1
S11301009BE0899F400D511D1124FA01EE5DFE4FC5
S113011085810BC0809121019BE0899F400D511D79
S11301201124FA01EE5DFE4F808523D10895EBE1A1
S1130130F1E020E030E090E0AC01022E02C05595E1
S113014047950A94E2F740FD10822F5F3F4F3196A6
S11301502630310589F70895CF93C82F80FF05C055
S113016080912E0290DF80932001C1FF05C0809111
S11301702C0289DF80931F01C2FF05C080912F02EA
S113018082DF80931E01C3FF05C080912D027BDFB7
S113019080931D01C4FF05C080912B0274DF8093FE
S11301A01C01C5FF05C080912A026DDF80931B01ED
S11301B0CF910895CF93DF93FC0101900020E9F7DC
S11301C03197E81BE73008F0E6E0EE2389F0DC0124
S11301D0CBE1D1E0E150F0E031968E0F9F1FED911D
S11301E0F0E0ED52F040E491E993A817B907B9F7AC
S11301F0DF91CF9108958FE388B987B91BB88FEF4A
S11302008AB985B984B98FE392DF81E180932A02A8
S113021089E080932B028DE180932D0282E080930C
S11302202F028BE180932C0288E180932E0283B706
S1130230816083BF8CED8093B300E0E7F0E08081C0
S113024082608083E0EBF0E0808182608083E1EB78
S1130250F0E08081876080839BD081E08AD07894AD
S1130260C1E0D0E01FE3EBE1F1E020E030E0CE01BB
S1130270022E02C0880F991F0A94E2F780958F73AB
S113028088B981918BB984E190E00197F1F71BB8AB
S113029018B984E190E00197F1F72F5F3F4F2630C2
S11302A0310529F703DFDFCF1F920F920FB60F92AC
S11302B011242F933F934F935F936F937F938F9367
S11302C09F93AF93BF93EF93FF93E7D08091000187
S11302D043DFFF91EF91BF91AF919F918F917F91F8
S11302E06F915F914F913F912F910F900FBE0F909F
S11302F01F9018950895109200018FE318DF8091E4
S113030000012ADF089586E0809300018FE30FDF68
S11303108091000121DF08958FE3809300011CDFA9
S11303200895109200018FE302DF81E091E042DF43
S11303300895109200018FE3FADE85E091E03ADF40
S11303400895109200018FE3F2DE89E091E032DF3C
S11303500895109200018FE3EADE8FE091E02ADF36
S11303600895109200018FE3E2DE85E191E022DF3F
S113037008958F3F61F0809321019BE0899FF001F4
S11303801124EE5DFE4F0190F081E02D0995089552
S1130390E2E2F1E04AE252E02AE731E08FEF318312
S11303A020838583868387838087818782873B96A2
S11303B0E417F507A1F7E2E2F1E08BE791E091831E
S11303C0808381E0878323E831E034872387108AA0
S11303D092E0928B2CE831E0378B268B838F83E07D
S11303E0858F21E931E032A321A396A395E097A359
S11303F024E020A729E931E035A724A781AB27E031
S113040022AB41EA51E050AF47AB84AF25AF86E061
S113041086AF49EA51E0509365014093640190939B
S1130420690181EB91E09093700180936F0139E051
S113043030937501309376018AE791E090937B01C4
S113044080937A0120937F019093860180938501A4
S113045030938B0190939101809390013BE0309312
S1130460960190939C0180939B013CE03093A10101
S11304709093A7018093A6013DE03093AC01909343
S1130480B2018093B1013EE03093B7019093BD0176
S11304908093BC012093C201089580912E028F5F46
S11304A08C3319F080932E02089510922E028091BD
S11304B02C028F5F8C3319F080932C0208951092D4
S11304C02C0280912F028F5F883119F080932F02C4
S10F04D0089510922F020895F894FFCFB5
S11304DC3F66756E0073657400736E616B65006FB7
S10D04EC746865720074696D6500A0
S9030000FC
