:1000000026C040C03FC03EC03DC03CC03BC05FC1F9
:1000100039C038C037C036C035C034C033C032C034
:1000200031C030C02FC02EC02DC02CC02BC02AC064
:1000300029C028C080C0888C84C8CCC4484CA0E0AB
:10004000A8ACA4E8ECE4686CA2E24EAAAEA6112427
:100050001FBECFEFD2E0DEBFCDBF11E0A0E0B1E028
:10006000EEEBF7E002C005900D92AA31B107D9F787
:1000700022E0AAE1B1E001C01D92AC34B207E1F781
:10008000E8D09BC3BDCF9DEC899F912D11249695FF
:100090009695969520E1929FA0011124990F292F02
:1000A000220F220F920F891B842B089583B1809514
:1000B000982F977080911A01892709F446C0682FFC
:1000C00070E080FD0EC080E08F5F482F50E09B0104
:1000D000082E02C0359527950A94E2F720FFF4CF49
:1000E00002C040E050E090931A01892F90E0042E66
:1000F00002C0959587950A94E2F780FF13C080911E
:10010000250190E09C01220F331F820F931F880F5F
:10011000991F880F991F8A5D9E4FFC01E40FF51F00
:10012000868112C08091250190E09C01220F331F2F
:10013000820F931F880F991F880F991F8A5D9E4F0A
:10014000FC01E40FF51F818547D108951BB88FE3AB
:1001500088B921E030E000901B0102C0220F331F5C
:100160000A94E2F7822788B9E0911B01F0E0E45E8F
:10017000FE4F80818BB980911B0190E0019666E073
:1001800070E0F4D280931B010895ECE1F1E020E0EF
:1001900030E090E0AC01022E02C0559547950A94DC
:1001A000E2F740FD10822F5F3F4F31962630310538
:1001B00089F70895CF93C82F80FF05C080914A0228
:1001C00062DF80932101C1FF05C0809148025BDF9F
:1001D00080932001C2FF05C080914B0254DF8093C1
:1001E0001F01C3FF05C0809149024DDF80931E01AE
:1001F000C4FF05C08091470246DF80931D01C5FF03
:1002000005C0809146023FDF80931C01CF91089585
:10021000CF93DF93FC0101900020E9F73197E81BB1
:10022000E73008F0E6E0EE2389F0DC01CCE1D1E034
:10023000E150F0E031968E0F9F1FED91F0E0ED520E
:10024000F040E491E993A817B907B9F7DF91CF918E
:1002500008958FE388B987B91BB88FEF8AB985B93C
:1002600084B98FE392DF81E1809346028BE0809333
:10027000470285E18093490282E080934B0283E04C
:100280008093480210924A0283B7816083BF8BE952
:100290008093B300E0E7F0E0808182608083E0EB50
:1002A000F0E0808182608083E1EBF0E08081846017
:1002B0008083D4D082E090D07894C6E0D0E084E10E
:1002C00090E00197F1F742DF2197C9F7F6CF1F922F
:1002D0000F920FB60F9211242F933F934F935F937A
:1002E0006F937F938F939F93AF93BF93EF93FF93FE
:1002F000DED1DCDEFF91EF91BF91AF919F918F91A5
:100300007F916F915F914F913F912F910F900FBE11
:100310000F901F9018950895109200018FE335DF1C
:100320008091000147DF089586E0809300018FE30C
:100330002CDF809100013EDF08958FE38093000160
:1003400039DF089580912201833081F028F48130D3
:1003500049F0823049F011C0853061F048F08630B4
:1003600059F00BC0B7D109C0BFD107C0CBD105C070
:10037000D6D103C0E1D101C0ECD1809100011ADFD8
:10038000089580912201833081F028F4813049F072
:10039000823049F011C0853061F048F0863059F064
:1003A0000BC03CD109C044D107C04FD105C05BD1BF
:1003B00003C065D101C06FD180910001FBDE0895BB
:1003C000CF93DF93EC01109200018FE3DEDECE01CC
:1003D0001FDFDF91CF9108958F3FC1F080932501FA
:1003E00090E0FC01EE0FFF1FDF01A80FB91FAA0F5D
:1003F000BB1FAA0FBB1FAA5DBE4FFD010190F0817C
:10040000E02D14968D919C911597099508958091F2
:10041000220191E0980F909322018630C0F48FE37F
:10042000B4DE8091220126E030E0281B310981E012
:1004300090E002C0880F991F2A95E2F7809300018F
:10044000B9DE81E0809323018AE0C6DF089510922F
:1004500022011092230187E0BFDF0895E6E2F1E078
:1004600046E452E02BE831E08FEF3183208386832E
:10047000878380878187828783873C96E417F50787
:10048000A1F7E6E2F1E08CE891E09183808381E0DE
:10049000808724E931E035872487128A22E0248B83
:1004A0004DE951E0518F408F868F33E030A380EECD
:1004B00091E095A384A341E051E051A740A722A772
:1004C00075E073A764E064A791AB80AB45E051E0B1
:1004D00055AB44AB36AB27E027AB95AF84AF49E0D3
:1004E00051E0509367014093660130936801209377
:1004F000690136E030936A0190936F0180936E0139
:100500004FE051E050937301409372017093740176
:1005100090937B0180937A01E5E1F1E0F0937F0114
:10052000E0937E016093800139E03093810168E0BF
:1005300060938201909387018093860150938B0191
:1005400040938A0120938C0187E092E0909393017D
:10055000809392018BE891E090939F0180939E019C
:100560004BE04093A4013093A5013CE03093A601F9
:1005700042EA51E05093AB014093AA013AE0309334
:10058000B30141EC51E05093B7014093B601309371
:10059000C1019093CF018093CE012093D50108959E
:1005A00080914702982F9D7F913031F1853031F154
:1005B00099EF980F923020F18A3021F18C3021F19F
:1005C000823021F580914602982F937009F599E2C7
:1005D000899F912D112492959F70382F24E6929F28
:1005E00030191124311116C090E060E971E0BED0DD
:1005F000892B91F08CE108958FE108958FE10895A2
:100600008FE108958FE108958FE108958EE10895B7
:100610008CE108958DE108958DE108958091460261
:1006200090E0019664E670E0A1D0809346020895C0
:10063000809147028F5F8D3019F0809347020895B3
:1006400081E080934702EADF0895AADF9091490292
:10065000891305C081E080934902EADF08959F5F16
:1006600090934902089580914B028F5F883119F071
:1006700080934B02089510924B02E7DF089580911A
:1006800048028F5F8C3319F08093480208951092CE
:100690004802E9DF089580914A028F5F8C3319F098
:1006A00080934A02089510924A02E9DF08958091EA
:1006B00024018F5F843619F08093240108951092ED
:1006C000240180912301811101C0E5DF80910001A7
:1006D00071DD08958091460290E0019764E670E034
:1006E00045D0809346020895809147029FEF980F6E
:1006F000813019F09093470208958CE0809347026F
:10070000E9DF0895809149029FEF980F9093490285
:10071000813021F4E9DF44DF80934902089580911C
:100720004B02882321F0815080934B02089587E18A
:1007300080934B02E7DF089580914802882321F0DF
:1007400081508093480208958BE380934802E7DF4D
:10075000089580914A02882321F0815080934A02B3
:1007600008958BE380934A02E7DF089597FB072EF5
:1007700016F4009406D077FD08D00BD007FC05D006
:100780003EF4909581959F4F0895709561957F4FA8
:100790000895AA1BBB1B51E107C0AA1FBB1FA617C8
:1007A000B70710F0A61BB70B881F991F5A95A9F71A
:0E07B00080959095BC01CD010895F894FFCF7F
:1007BE003F66756E0073657400736E616B65006FD6
:0A07CE00746865720074696D6500BF
:00000001FF
