:1000000026C040C03FC03EC03DC03CC03BC05FC1F9
:1000100039C038C037C036C035C034C033C032C034
:1000200031C030C02FC02EC02DC02CC02BC02AC064
:1000300029C028C080C0888C84C8CCC4484CA0E0AB
:10004000A8ACA4E8ECE4686CA2E24EAAAEA6112427
:100050001FBECFEFD2E0DEBFCDBF11E0A0E0B1E028
:10006000EEE1FBE002C005900D92A032B107D9F796
:1000700022E0A0E2B1E001C01D92A638B207E1F78C
:10008000E8D04BC5BDCF9DEC899F912D112496954D
:100090009695969520E1929FA0011124990F292F02
:1000A000220F220F920F891B842B089583B1809514
:1000B000982F977080912001892709F446C0682FF6
:1000C00070E080FD0EC080E08F5F482F50E09B0104
:1000D000082E02C0359527950A94E2F720FFF4CF49
:1000E00002C040E050E090932001892F90E0042E60
:1000F00002C0959587950A94E2F780FF13C080911E
:100100005F0190E09C01220F331F820F931F880F25
:10011000991F880F991F805A9E4FFC01E40FF51F0D
:10012000868112C080915F0190E09C01220F331FF5
:10013000820F931F880F991F880F991F805A9E4F17
:10014000FC01E40FF51F8185D9D208951BB88FE318
:1001500088B921E030E00090210102C0220F331F56
:100160000A94E2F7822788B9E0912101F0E0EE5D80
:10017000FE4F80818BB98091210190E0019666E06D
:1001800070E0A4D4809321010895E2E2F1E020E040
:1001900030E090E0AC01022E02C0559547950A94DC
:1001A000E2F740FD10822F5F3F4F31962630310538
:1001B00089F70895CF93C82F80FF05C080918402EE
:1001C00062DF80932701C1FF05C0809182025BDF5F
:1001D00080932601C2FF05C08091850254DF809381
:1001E0002501C3FF05C0809183024DDF8093240168
:1001F000C4FF05C08091810246DF80932301C5FFC3
:1002000005C0809180023FDF80932201CF91089545
:10021000CF93DF93FC0101900020E9F73197E81BB1
:10022000E73008F0E6E0EE2389F0DC01C2E2D1E03D
:10023000E150F0E031968E0F9F1FED91F0E0ED520E
:10024000F040E491E993A817B907B9F7DF91CF918E
:1002500008958FE388B987B91BB88FEF8AB985B93C
:1002600084B98FE392DF81E1809380028BE08093F9
:10027000810285E18093830282E08093850283E09E
:10028000809382021092840283B7816083BF8BE9DE
:100290008093B300E0E7F0E0808182608083E0EB50
:1002A000F0E0808182608083E1EBF0E08081846017
:1002B000808379D28DE022D27894C6E0D0E084E1C8
:1002C00090E00197F1F742DF2197C9F7F6CF1F922F
:1002D0000F920FB60F9211242F933F934F935F937A
:1002E0006F937F938F939F93AF93BF93EF93FF93FE
:1002F0008ED3DCDE45D2FF91EF91BF91AF919F91FC
:100300008F917F916F915F914F913F912F910F90BE
:100310000FBE0F901F90189581E080935D01ECE275
:10032000F1E08BE180838CE1818382E080935E0148
:1003300010925C018EE0E2D1089580915C0190E022
:10034000019783709078992324F401978C6F9F6FA5
:10035000019680935C018EE0D1D1089580915C017B
:1003600090E0019683709078992324F401978C6F24
:100370009F6F019680935C018EE0C0D108959F929B
:10038000AF92BF92CF92DF92EF92FF920F931F93A3
:10039000CF93DF938FE3F9DEA0905E01AA2009F4EA
:1003A00065C0C0915D0120E030E0D0E00F2EF0E3A9
:1003B000EF2EF12CF02D0F2EFBEABF2EF02D0F2E7D
:1003C000F8E19F2EF02DE3E0F0E001E010E0CE0137
:1003D000821B930BB7017AD3DC01A45DBE4F4C9115
:1003E0004B9D812D112482958F70642F899D6019FA
:1003F00011246B9D812D112486958695BF01681B64
:100400007109680102C0CC0CDD1C6A95E2F7483125
:1004100060F4842F86958B9D912D11249695592FEC
:10042000550F950F891B90E00DC0642F70E0685147
:100430007109CB0199230CF4019695958795BF011D
:1004400045D30396DC01AE5DBE4F5C9140FD04C018
:10045000CC0CCC0CCC0CCC0CDC01AE5DBE4FC52A58
:10046000CC922F5F3F4F2A1508F4B1CFDF91CF9187
:100470001F910F91FF90EF90DF90CF90BF90AF90C2
:100480009F900895809128018F5F843619F08093A2
:10049000280108951092280180915C0181110AC001
:1004A000E0915D01F0E0E45DFE4F8081863008F070
:1004B0003FC035C08130A1F4E0915D01F0E0E45D22
:1004C000FE4F90818BEA989F812D11248695869509
:1004D000282F220F820F880F981B953089F51FC097
:1004E000823049F4E0915D01F0E0E45DFE4F8081EF
:1004F0008A3270F114C08330A9F4E0915D01F0E01C
:10050000E45DFE4F90818BEA989F812D11248695A2
:100510008695282F220F820F880F981321C081E122
:10052000EDD00895813061F018F08230C9F410C028
:10053000E0915D01F0E0E45DFE4F2081265017C0A0
:10054000E0915D01F0E0E45DFE4F20812F5F0FC080
:10055000E0915D01F0E0E45DFE4F20812A5F07C07D
:10056000E0915D01F0E0E45DFE4F2081215080913B
:100570005D0190E0019660E370E0A8D280935D0198
:1005800099273BEA239F312D1124329536953770F8
:1005900040E3349F20191124322FFC01E45DFE4F0B
:1005A000208320915E012230C0F0FC01E55DFE4F0A
:1005B0004081341307C003C0229132130BC081E184
:1005C0009DD00895FC01E55DFE4F2250821B9109EC
:1005D000855D9E4FE817F90779F7D1DE08958CE81D
:1005E00091E09093FD018093FC0182E492E090936E
:1005F0000B0280930A028FE080930E0280E18093C9
:1006000010028DE991E090931502809314028EEA16
:1006100091E0909321028093200282E793E09093EF
:100620002D0280932C0281E091E09093310280931F
:10063000300285E0809333020895089510920001FE
:100640008FE3A3DD80910001B5DD089586E08093FE
:1006500000018FE39ADD80910001ACDD08958FE306
:1006600080930001A7DD089580912901833081F0F6
:1006700028F4813049F0823049F011C0853061F0B2
:1006800048F0863059F00BC0D5D109C0DDD107C084
:10069000E9D105C0F4D103C0FFD101C00AD28091D5
:1006A000000188DD089580912901833081F028F4CC
:1006B000813049F0823049F011C0853061F048F056
:1006C000863059F00BC05AD109C062D107C06DD134
:1006D00005C079D103C083D101C08DD180910001C3
:1006E00069DD0895CF93DF93EC01109200018FE351
:1006F0004CDDCE018DDDDF91CF9108958F3FC1F0AC
:1007000080935F0190E0FC01EE0FFF1FDF01A80F57
:10071000B91FAA0FBB1FAA0FBB1FA05ABE4FFD01D6
:100720000190F081E02D14968D919C91159709957B
:1007300008958091290191E0980F909329018630C6
:10074000C0F48FE322DD8091290126E030E0281BF0
:10075000310981E090E002C0880F991F2A95E2F7E5
:100760008093000127DD81E080932A018AE0C6DFC3
:1007700008951092290110922A0187E0BFDF0895A1
:1007800080915F0190E0FC01EE0FFF1FE80FF91F61
:10079000EE0FFF1FEE0FFF1FE05AFE4F0280F381A6
:1007A000E02D09950895FF920F931F93CF93DF9348
:1007B000E0E6F1E040E852E02DE133E08FEF3183F5
:1007C0002083338322838683878380878187828700
:1007D00083873C96E417F50791F7E0E6F1E08EE1B8
:1007E00093E09183808381E0808726E233E0358740
:1007F0002487128A92E0948B2FE233E0318F208F8E
:10080000868F83E080A3C2E7D3E0D5A3C4A326E00C
:1008100031E031A720A792A70F2EF5E0FF2EF02D93
:10082000F3A604E004A7D1ABC0AB2AE031E035ABBE
:1008300024AB86AB17E017ABD5AFC4AF2EE031E0E9
:100840003093A1012093A0018093A2018DE08093B9
:10085000A30186E08093A401C2DED093A901C093D6
:10086000A80124E131E03093AD012093AC01F09276
:10087000AE01D093B501C093B4018AE191E09093A9
:10088000B9018093B8010093BA0189E08093BB015C
:1008900098E09093BC01D093C101C093C001309304
:1008A000C5012093C4011093C60129E933E03093B8
:1008B000CD012093CC012DE133E03093D901209379
:1008C000D8019BE09093DE018093DF018CE0809360
:1008D000E00184E393E09093E5018093E4018AE0F2
:1008E0008093ED0123E533E03093F1012093F00193
:1008F0008093FB01DF91CF911F910F91FF9008959D
:1009000080918102982F9D7F913031F1853031F1B6
:1009100099EF980F923020F18A3021F18C3021F13B
:10092000823021F580918002982F937009F599E229
:10093000899F912D112492959F70382F24E6929FC4
:1009400030191124311116C090E060E971E0BED079
:10095000892B91F08CE108958FE108958FE108953E
:100960008FE108958FE108958FE108958EE1089554
:100970008CE108958DE108958DE1089580918002C4
:1009800090E0019664E670E0A1D080938002089523
:10099000809181028F5F8D3019F0809381020895DC
:1009A00081E080938102EADF0895AADF90918302BB
:1009B000891305C081E080938302EADF08959F5F79
:1009C000909383020895809185028F5F883119F09A
:1009D00080938502089510928502E7DF0895809143
:1009E00082028F5F8C3319F08093820208951092F7
:1009F0008202E9DF0895809184028F5F8C3319F0C1
:100A000080938402089510928402E9DF0895809112
:100A10002B018F5F843619F080932B01089510927B
:100A20002B0180912A01811101C0E5DF8091000135
:100A3000C1DB08958091800290E0019764E670E048
:100A400045D0809380020895809181029FEF980F96
:100A5000813019F09093810208958CE08093810297
:100A6000E9DF0895809183029FEF980F90938302AE
:100A7000813021F4E9DF44DF80938302089580917F
:100A80008502882321F0815080938502089587E1B3
:100A900080938502E7DF089580918202882321F008
:100AA00081508093820208958BE380938202E7DF76
:100AB000089580918402882321F0815080938402DC
:100AC00008958BE380938402E7DF089597FB072E58
:100AD00016F4009406D077FD08D00BD007FC05D0A3
:100AE0003EF4909581959F4F0895709561957F4F45
:100AF0000895AA1BBB1B51E107C0AA1FBB1FA61765
:100B0000B70710F0A61BB70B881F991F5A95A9F7B6
:0E0B100080959095BC01CD010895F894FFCF1B
:100B1E003F6F7665720066756E0073657400736E56
:100B2E00616B65006F746865720074696D650000B5
:00000001FF
