S0100000754368726F6E6F732E73726563C3
S113000026C040C03FC03EC03DC03CC03BC050C104
S113001039C038C037C036C035C034C033C032C030
S113002031C030C02FC02EC02DC02CC02BC02AC060
S113003029C028C080C0888C84C8CCC4484CA0E0A7
S1130040A8ACA4E8ECE4686CA2E24EAAAEA6112423
S11300501FBECFEFD2E0DEBFCDBF11E0A0E0B1E024
S1130060EAE5F5E002C005900D92A032B107D9F798
S113007022E0A0E2B1E001C01D92A833B207E1F78B
S1130080D9D069C2BDCF9DEC899F912D112496953D
S11300909695969520E1929FA0011124990F292FFE
S11300A0220F220F920F891B842B089583B1809510
S11300B0982F9770809120018927C1F1682F70E0F3
S11300C080FD0EC080E08F5F482F50E09B01082E1A
S11300D002C0359527950A94E2F720FFF4CF02C0B9
S11300E040E050E090932001892F90E0042E02C05C
S11300F0959587950A94E2F780FF0CC080912901B9
S11301009BE0899F400D511D1124FA01E65DFE4FCD
S113011085810BC0809129019BE0899F400D511D71
S11301201124FA01E65DFE4F808529D108951BB89C
S11301308FE388B921E030E00090210102C0220F52
S1130140331F0A94E2F7822788B9E0912101F0E095
S1130150EE5DFE4F80818BB98091210190E0019684
S113016066E070E0D1D1809321010895E2E2F1E0EC
S113017020E030E090E0AC01022E02C05595479596
S11301800A94E2F740FD10822F5F3F4F31962630EC
S1130190310589F70895CF93C82F80FF05C080915A
S11301A0360271DF80932701C1FF05C080913402BC
S11301B06ADF80932601C2FF05C08091370263DFA6
S11301C080932501C3FF05C0809135025CDF8093D5
S11301D02401C4FF05C08091330255DF80932301BD
S11301E0C5FF05C0809132024EDF80932201CF917A
S11301F00895CF93DF93FC0101900020E9F7319734
S1130200E81BE73008F0E6E0EE2389F0DC01C2E207
S1130210D1E0E150F0E031968E0F9F1FED91F0E0B8
S1130220ED52F040E491E993A817B907B9F7DF91CB
S1130230CF9108958FE388B987B91BB88FEF8AB936
S113024085B984B98FE392DF81E1809332028BE038
S11302508093330285E18093350282E080933702F4
S113026083E0809334021092360283B7816083BFA7
S11302708BE98093B300E0E7F0E0808182608083C3
S1130280E0EBF0E0808182608083E1EBF0E080814C
S11302908460808383D083E072D07894C6E0D0E019
S11302A084E190E00197F1F742DF2197C9F7F6CF97
S11302B01F920F920FB60F9211242F933F934F93D7
S11302C05F936F937F938F939F93AF93BF93EF93BA
S11302D0FF93EED0EBDEFF91EF91BF91AF919F9131
S11302E08F917F916F915F914F913F912F910F90DB
S11302F00FBE0F901F9018950895109200018FE380
S113030035DF8091000147DF089586E08093000186
S11303108FE32CDF809100013EDF08958FE380930B
S1130320000139DF0895109200018FE31FDF81E09F
S113033091E05FDF0895109200018FE317DF85E0FD
S113034091E057DF0895109200018FE30FDF8BE0F7
S113035091E04FDF0895109200018FE307DF81E100
S113036091E047DF0895CF93DF93EC0110920001F1
S11303708FE3FCDECE013DDFDF91CF9108958F3F07
S113038061F0809329019BE0899FF0011124E65DCF
S1130390FE4F0190F081E02D09950895EAE2F1E025
S11303A042E352E02CE731E08FEF318320838583F1
S11303B0868387838087818782873B96E417F50746
S11303C0A1F7EAE2F1E08DE791E09183808381E097
S11303D0878325E831E034872387108A92E0928B63
S11303E02EE831E0378B268B838F83E0858F23EBD8
S11303F031E032A321A32AE131E034A323A396A35D
S113040035E037A394E090A743E951E055A744A70A
S113041081AB27E022AB4BE951E050AF47AB84AF4F
S113042025AF86E086AF43EA51E050936D014093D7
S11304306C01309371014BEA51E050937801409381
S1130440770190937C0189E080937D018CE791E0B2
S113045090938301809382012093870190938E016E
S113046080938D013AE030939301909399018093A6
S113047098013BE030939E019093A4018093A301E3
S11304803CE03093A9019093AF018093AE013DE02D
S11304903093B4019093BA018093B9013EE0309354
S11304A0BF019093C5018093C4012093CA010895AC
S11304B0809128018F5F843619F080932801089574
S11304C010922801809136028F5F8C3319F080934B
S11304D0360216C010923602809134028F5F8C333C
S11304E019F0809334020CC01092340280913702C8
S11304F08F5F883119F08093370202C0109237025F
S11305008091000148DE089597FB072E16F40094AD
S113051006D077FD08D00BD007FC05D03EF49095AB
S113052081959F4F0895709561957F4F0895AA1BFB
S1130530BB1B51E107C0AA1FBB1FA617B70710F0CA
S1130540A61BB70B881F991F5A95A9F780959095FC
S10D0550BC01CD010895F894FFCF1B
S113055A3F73657400736E616B65006F74686572CE
S113056A0074696D650066756E00616161616100A0
S9030000FC
