S0100000754368726F6E6F732E73726563C3
S113000026C040C03FC03EC03DC03CC03BC07CC1D8
S113001039C038C037C036C035C034C033C032C030
S113002031C030C02FC02EC02DC02CC02BC02AC060
S113003029C028C080C0888C84C8CCC4484CA0E0A7
S1130040A8ACA4E8ECE4686CA2E24EAAAEA6112423
S11300501FBECFEFD2E0DEBFCDBF11E0A0E0B1E024
S1130060E2E3F5E002C005900D92A631B107D9F79D
S113007022E0A6E1B1E001C01D92A436B207E1F787
S1130080EAD055C2BDCF9DEC899F912D1124969540
S11300909695969520E1929FA0011124990F292FFE
S11300A0220F220F920F891B842B089583B1809510
S11300B0982F977080911601892709F467C0682FDB
S11300C070E080FD0EC080E08F5F482F50E09B0100
S11300D0082E02C0359527950A94E2F720FFF4CF45
S11300E002C040E050E090931601892F90E0042E66
S11300F002C0959587950A94E2F780FF24C0209169
S11301001D01822F90E0DA0134E1239FA00DB11D7F
S11301101124AC5DBE4FFC01EE0FFF1F880F991F29
S1130120880F991F880F991FE80FF91FE40FF51F17
S1130130EE0FFF1FEA5DFE4F0190F081E02D18964F
S11301408C910995089520911D01822F90E0DA0188
S113015034E1239FA00DB11D1124AC5DBE4FFC0101
S1130160EE0FFF1F880F991F880F991F880F991F83
S1130170E80FF91FE40FF51FEE0FFF1FEC5DFE4FB4
S11301800384F485E02D51968C9109950895E7E157
S1130190F1E020E030E090E0AC01022E02C0559581
S11301A047950A94E2F740FD10822F5F3F4F319646
S11301B02630310589F70895CF93C82F80FF05C0F5
S11301C08091220160DF80931C01C1FF05C08091F2
S11301D0200159DF80931B01C2FF05C080912301D8
S11301E052DF80931A01C3FF05C0809121014BDFC8
S11301F080931901C4FF05C080911F0144DF8093DF
S11302001801C5FF05C080911E013DDF80931701D1
S1130210CF910895CF93DF93FC0101900020E9F77B
S11302203197E81BE73008F0E6E0EE2389F0DC01C3
S1130230C7E1D1E0E150F0E031968E0F9F1FED91C0
S1130240F0E0ED52F040E491E993A817B907B9F74B
S1130250DF91CF9108958FE388B987B91BB88FEFE9
S11302608AB985B984B98FE392DF81E180931E0155
S113027089E080931F018DE18093210182E08093C6
S113028023018BE18093200188E18093220183B7CD
S1130290816083BF8CED8093B300E0E7F0E0808160
S11302A082608083E0EBF0E0808182608083E1EB18
S11302B0F0E0808187608083AFD081E06AD0789459
S11302C0C1E0D0E01FE3E7E1F1E020E030E0CE015F
S11302D0022E02C0880F991F0A94E2F780958F734B
S11302E088B981918BB984E190E00197F1F71BB84B
S11302F018B984E190E00197F1F72F5F3F4F263062
S1130300310529F7D3DEDFCF1F920F920FB60F927C
S113031011242F933F934F935F936F937F938F9306
S11303209F93AF93BF93EF93FF93809122018F5FCD
S11303308C3319F08093220116C01092220180910F
S113034020018F5F8C3319F0809320010CC0109230
S11303502001809123018F5F883119F0809323015C
S113036002C0109223018091000126DFFF91EF91DA
S1130370BF91AF919F918F917F916F915F914F91B9
S11303803F912F910F900FBE0F901F9018950895D5
S1130390089580931D0194E1899FF0011124EC5D7F
S11303A0FE4F0190F081E02D09950895109200010F
S11303B08FE3EDDE80910001FFDE089586E08093F7
S11303C000018FE3E4DE80910001F6DE08958FE3FF
S11303D080930001F1DE0895109200018FE3D7DECF
S11303E081E091E017DF0895109200018FE3CFDEE2
S11303F085E091E00FDF0895109200018FE3C7DEDE
S113040089E091E007DF0895109200018FE3BFDED9
S11304108FE091E0FFDE0895E4E2F1E044E652E08B
S113042028EC31E087EC91E031832083938382834D
S11304309583848397838683108611861286948796
S1130440838796878587908B8787118A128A138A78
S11304507496E417F50741F7E4E2F1E086ED91E0E4
S11304609183808389EC91E09783868321E02287BE
S11304704EED51E0558B448B978B868B148E938F66
S1130480828F32E0368F47EE51E051A740A793A701
S113049082A720AB97A786A723E022AB4CEE51E0BE
S11304A055AF44AF97AF86AF309368019093650121
S11304B08093640135E030936901909367018093E0
S11304C0660144E040936A0144EF51E050937501A2
S11304D040937401909377018093760120937C017B
S11304E04CEF51E0509389014093880190938B0124
S11304F080938A012093900190938D0180938C01C5
S113050027E02093910190938F0180938E0126E040
S11305102093920144E052E050939D0140939C014A
S113052090939F0180939E013093A4010895F894C1
S1050530FFCFF7
S11305323F66756E0073657400736E616B65006F60
S1090542746865720000FC
S9030000FC
