:1000000019C028C027C026C025C024C023C0BFC037
:1000100021C020C01FC01EC01DC01CC01BC01AC0F4
:1000200019C018C017C016C015C014C013C012C024
:1000300011C010C011241FBECFEFD2E0DEBFCDBF74
:1000400021E0A0E0B1E001C01D92AC30B207E1F7C1
:100050004CD0DFC0D5CF9DEC899F912D1124969572
:100060009695969520E1929FA0011124990F292F32
:10007000220F220F920F891B842B0895E0E0F1E0FC
:100080001082118212821382148215820895CF93F6
:10009000C82F80FF05C080910A01DDDF8093050134
:1000A000C1FF05C080910801D6DF80930401C2FF23
:1000B00005C080910B01CFDF80930301C3FF05C012
:1000C00080910901C8DF80930201C4FF05C08091BF
:1000D0000701C1DF80930101C5FF05C080910601C2
:1000E000BADF80930001CF9108958FE388B987B973
:1000F0001BB88FEF8AB9C2DF81E18093060189E0E6
:10010000809307018DE18093090182E080930B01C8
:100110008BE18093080188E180930A0183B78160B5
:1001200083BF8CED8093B300E0E7F0E080818260D4
:100130008083E0EBF0E0808182608083E1EBF0E09F
:10014000808187608083789461E070E04FE3E0E035
:10015000F1E020E030E0CB01022E02C0880F991FB1
:100160000A94E2F780958F7388B981918BB984E105
:1001700090E00197F1F71BB848B984E190E001974E
:10018000F1F72F5F3F4F2630310529F7E0CF1F925F
:100190000F920FB60F9211242F933F934F935F93BB
:1001A0006F937F938F939F93AF93BF93EF93FF933F
:1001B00080910A018F5F8C3319F080930A0116C079
:1001C00010920A01809108018F5F8C3319F080939F
:1001D00008010CC01092080180910B018F5F8831DB
:1001E00019F080930B0102C010920B0187E04FDFE2
:1001F000FF91EF91BF91AF919F918F917F916F91FF
:100200005F914F913F912F910F900FBE0F901F90D4
:060210001895F894FFCFE1
:00000001FF
