S0100000754368726F6E6F732E73726563C3
S113000026C040C03FC03EC03DC03CC03BC051C103
S113001039C038C037C036C035C034C033C032C030
S113002031C030C02FC02EC02DC02CC02BC02AC060
S113003029C028C080C0888C84C8CCC4484CA0E0A7
S1130040A8ACA4E8ECE4686CA2E24EAAAEA6112423
S11300501FBECFEFD2E0DEBFCDBF11E0A0E0B1E024
S1130060EAE4F5E002C005900D92AA31B107D9F790
S113007022E0AAE1B1E001C01D92A233B207E1F788
S1130080D9D061C2BDCF9DEC899F912D1124969545
S11300909695969520E1929FA0011124990F292FFE
S11300A0220F220F920F891B842B089583B1809510
S11300B0982F977080911A018927C1F1682F70E0F9
S11300C080FD0EC080E08F5F482F50E09B01082E1A
S11300D002C0359527950A94E2F720FFF4CF02C0B9
S11300E040E050E090931A01892F90E0042E02C062
S11300F0959587950A94E2F780FF0CC080912201C0
S11301009BE0899F400D511D1124FA01EC5DFE4FC7
S113011085810BC0809122019BE0899F400D511D78
S11301201124FA01EC5DFE4F808529D108951BB896
S11301308FE388B921E030E000901B0102C0220F58
S1130140331F0A94E2F7822788B9E0911B01F0E09B
S1130150E45EFE4F80818BB980911B0190E0019693
S113016066E070E0C9D180931B010895ECE1F1E0F1
S113017020E030E090E0AC01022E02C05595479596
S11301800A94E2F740FD10822F5F3F4F31962630EC
S1130190310589F70895CF93C82F80FF05C080915A
S11301A0300271DF80932101C1FF05C080912E02CE
S11301B06ADF80932001C2FF05C08091310263DFB2
S11301C080931F01C3FF05C080912F025CDF8093E1
S11301D01E01C4FF05C080912D0255DF80931D01CF
S11301E0C5FF05C080912C024EDF80931C01CF9186
S11301F00895CF93DF93FC0101900020E9F7319734
S1130200E81BE73008F0E6E0EE2389F0DC01CCE1FE
S1130210D1E0E150F0E031968E0F9F1FED91F0E0B8
S1130220ED52F040E491E993A817B907B9F7DF91CB
S1130230CF9108958FE388B987B91BB88FEF8AB936
S113024085B984B98FE392DF81E180932C028BE03E
S113025080932D0284E180932F0283E18093310205
S113026085E080932E0283E28093300283B781601D
S113027083BF86E28093B300E0E7F0E08081826090
S11302808083E0EBF0E0808182608083E1EBF0E04A
S113029080818660808382D081E071D07894C6E0CA
S11302A0D0E084E190E00197F1F741DF2197C9F7AD
S11302B0F6CF1F920F920FB60F9211242F933F93F4
S11302C04F935F936F937F938F939F93AF93BF935A
S11302D0EF93FF93E8D0EADE809100015CDFFF91A9
S11302E0EF91BF91AF919F918F917F916F915F91AA
S11302F04F913F912F910F900FBE0F901F90189523
S11303000895109200018FE331DF8091000143DFF3
S1130310089586E0809300018FE328DF8091000137
S11303203ADF08958FE38093000135DF089510923A
S113033000018FE31BDF81E091E05BDF0895109201
S113034000018FE313DF85E091E053DF08951092FD
S113035000018FE30BDF89E091E04BDF08951092F9
S113036000018FE303DF8FE091E043DF08951092F3
S113037000018FE3FBDE85E191E03BDF08958F3FD1
S113038061F0809322019BE0899FF0011124EC5DD0
S1130390FE4F0190F081E02D09950895E4E2F1E02B
S11303A04CE252E020E831E08FEF318320838583F3
S11303B0868387838087818782873B96E417F50746
S11303C0A1F7E4E2F1E081E891E09183808381E0A8
S11303D0878329E831E034872387108A92E0928B5F
S11303E022E931E0378B268B838F83E0858F27E9E1
S11303F031E032A321A396A395E097A324E020A79C
S11304002FE931E035A724A781AB27E022AB47EAE7
S113041051E050AF47AB84AF25AF86E086AF4FEADB
S113042051E0509367014093660190936B0187EB11
S113043091E0909372018093710139E030937701D8
S11304403093780180E891E090937D0180937C0162
S113045020938101909388018093870130938D01CB
S113046090939301809392013BE030939801909391
S11304709E0180939D013CE03093A3019093A901D8
S11304808093A8013DE03093AE019093B401809332
S1130490B3013EE03093B9019093BF018093BE0154
S11304A02093C4010895809123018F5F843619F04D
S11304B080932301089510922301809130028F5F6D
S11304C08C3319F080933002089510923002809199
S11304D02E028F5F8C3319F080932E0208951092B0
S11304E02E02809131028F5F883119F0809331029E
S11304F0089510923102089597FB072E16F4009484
S113050006D077FD08D00BD007FC05D03EF49095BB
S113051081959F4F0895709561957F4F0895AA1B0B
S1130520BB1B51E107C0AA1FBB1FA617B70710F0DA
S1130530A61BB70B881F991F5A95A9F7809590950C
S10D0540BC01CD010895F894FFCF2B
S113054A3F66756E0073657400736E616B65006F48
S10D055A746865720074696D650031
S9030000FC
