:1000000026C040C03FC03EC03DC03CC03BC04CC10C
:1000100039C038C037C036C035C034C033C032C034
:1000200031C030C02FC02EC02DC02CC02BC02AC064
:1000300029C028C080C0888C84C8CCC4484CA0E0AB
:10004000A8ACA4E8ECE4686CA2E24EAAAEA6112427
:100050001FBECFEFD2E0DEBFCDBF11E0A0E0B1E028
:10006000E8EDF4E002C005900D92AA31B107D9F78E
:1000700022E0AAE1B1E001C01D92A033B207E1F78E
:10008000BAD028C2BDCF9DEC899F912D11249695A1
:100090009695969520E1929FA0011124990F292F02
:1000A000220F220F920F891B842B089583B1809514
:1000B000982F977080911A018927C1F1682F70E0FD
:1000C00080FD0EC080E08F5F482F50E09B01082E1E
:1000D00002C0359527950A94E2F720FFF4CF02C0BD
:1000E00040E050E090931A01892F90E0042E02C066
:1000F000959587950A94E2F780FF0CC080912101C5
:100100009BE0899F400D511D1124FA01E85DFE4FCF
:1001100085810BC0809121019BE0899F400D511D7D
:100120001124FA01E85DFE4F808540D10895EBE18E
:10013000F1E020E030E090E0AC01022E02C05595E5
:1001400047950A94E2F740FD10822F5F3F4F3196AA
:100150002630310589F70895CF93C82F80FF05C059
:100160008091260190DF80932001C1FF05C080911E
:10017000240189DF80931F01C2FF05C08091270100
:1001800082DF80931E01C3FF05C0809125017BDFC4
:1001900080931D01C4FF05C08091230174DF80930B
:1001A0001C01C5FF05C0809122016DDF80931B01FA
:1001B000CF910895CF93DF93FC0101900020E9F7E0
:1001C0003197E81BE73008F0E6E0EE2389F0DC0128
:1001D000CBE1D1E0E150F0E031968E0F9F1FED9121
:1001E000F0E0ED52F040E491E993A817B907B9F7B0
:1001F000DF91CF9108958FE388B987B91BB88FEF4E
:100200008AB985B984B98FE392DF81E180932201B5
:1002100089E0809323018DE18093250182E0809322
:1002200027018BE18093240188E18093260183B725
:10023000816083BF8CED8093B300E0E7F0E08081C4
:1002400082608083E0EBF0E0808182608083E1EB7C
:10025000F0E0808187608083B8D081E0A7D0789477
:10026000C1E0D0E01FE3EBE1F1E020E030E0CE01BF
:10027000022E02C0880F991F0A94E2F780958F73AF
:1002800088B981918BB984E190E00197F1F71BB8AF
:1002900018B984E190E00197F1F72F5F3F4F2630C6
:1002A000310529F703DFDFCF1F920F920FB60F92B0
:1002B00011242F933F934F935F936F937F938F936B
:1002C0009F93AF93BF93EF93FF93809126018F5F2E
:1002D0008C3319F08093260116C01092260180916C
:1002E00024018F5F8C3319F0809324010CC010928D
:1002F0002401809127018F5F883119F080932701B5
:1003000002C0109227018091000126DFFF91EF913A
:10031000BF91AF919F918F917F916F915F914F911D
:100320003F912F910F900FBE0F901F901895089539
:10033000109200018FE3FBDE809100010DDF089534
:1003400086E0809300018FE3F2DE8091000104DFFC
:1003500008958FE380930001FFDE0895109200015D
:100360008FE3E5DE81E091E025DF08951092000142
:100370008FE3DDDE85E091E01DDF0895109200013E
:100380008FE3D5DE89E091E015DF0895109200013A
:100390008FE3CDDE8FE091E00DDF08951092000134
:1003A0008FE3C5DE85E191E005DF08958F3F61F0C1
:1003B000809321019BE0899FF0011124E85DFE4FAD
:1003C0000190F081E02D09950895E8E2F1E040E325
:1003D00052E027E931E08FEF3183208385838683E4
:1003E00087838087818782873B96E417F507A1F78B
:1003F000E8E2F1E088E991E09183808381E08783FE
:1004000020EA31E034872387108A92E0928B29EA30
:1004100031E0378B268B838F83E0858F2EEA31E0A6
:1004200032A321A396A395E097A324E020A726EB6F
:1004300031E035A724A781AB27E022AB4EEB51E09A
:1004400050AF47AB84AF25AF86E086AF46EC51E0B6
:1004500050936B0140936A0190936F018EEC91E091
:10046000909376018093750139E030937B0130934E
:100470007C0187E991E09093810180938001209332
:10048000850190938C0180938B013093910190931F
:100490009701809396013BE030939C019093A201D9
:1004A0008093A1013CE03093A7019093AD0180932C
:1004B000AC013DE03093B2019093B8018093B70155
:1004C0003EE03093BD019093C3018093C20120931D
:0804D000C8010895F894FFCF64
:1004D8003F66756E0073657400736E616B65006FBF
:0A04E800746865720074696D6500A8
:00000001FF
