S0100000754368726F6E6F732E73726563C3
S113000026C040C03FC03EC03DC03CC03BC055C1FF
S113001039C038C037C036C035C034C033C032C030
S113002031C030C02FC02EC02DC02CC02BC02AC060
S113003029C028C080C0888C84C8CCC4484CA0E0A7
S1130040A8ACA4E8ECE4686CA2E24EAAAEA6112423
S11300501FBECFEFD2E0DEBFCDBF11E0A0E0B1E024
S1130060E4E6F4E002C005900D92A631B107D9F799
S113007021E0A6E1B1E001C01D92A43EB207E1F780
S1130080C3D0EEC1BDCF9DEC899F912D11249695CF
S11300909695969520E1929FA0011124990F292FFE
S11300A0220F220F920F891B842B089583B1809510
S11300B0982F977080911601892709F440C0682F02
S11300C070E080FD0EC080E08F5F482F50E09B0100
S11300D0082E02C0359527950A94E2F720FFF4CF45
S11300E002C040E050E090931601892F90E0042E66
S11300F002C0959587950A94E2F780FF10C080911D
S11301001D0190E0880F991F880F991F880F991F70
S11301108C5D9E4FFC01E40FF51F82810FC080911E
S11301201D0190E0880F991F880F991F880F991F50
S11301308C5D9E4FFC01E40FF51F858138D1089535
S1130140E7E1F1E020E030E090E0AC01022E02C0F3
S1130150559547950A94E2F740FD10822F5F3F4F73
S113016031962630310589F70895CF93C82F80FF43
S113017005C08091220187DF80931C01C1FF05C067
S11301808091200180DF80931B01C2FF05C0809114
S1130190230179DF80931A01C3FF05C080912101F7
S11301A072DF80931901C4FF05C080911F016BDFCA
S11301B080931801C5FF05C080911E0164DF809300
S11301C01701CF910895CF93DF93FC010190002094
S11301D0E9F73197E81BE73008F0E6E0EE2389F011
S11301E0DC01C7E1D1E0E150F0E031968E0F9F1FB2
S11301F0ED91F0E0ED52F040E491E993A817B907CE
S1130200B9F7DF91CF9108958FE388B987B91BB807
S11302108FEF8AB985B984B98FE392DF81E1809346
S11302201E0189E080931F018DE18093210182E00A
S1130230809323018BE18093200188E18093220144
S113024083B7816083BF8CED8093B300E0E7F0E077
S1130250808182608083E0EBF0E080818260808333
S1130260E1EBF0E0808187608083B4D081E09FD0AF
S11302707894C1E0D0E01FE3E7E1F1E020E030E072
S1130280CE01022E02C0880F991F0A94E2F78095CE
S11302908F7388B981918BB984E190E00197F1F76C
S11302A01BB818B984E190E00197F1F72F5F3F4F35
S11302B02630310529F7FADEDFCF1F920F920FB6F1
S11302C00F9211242F933F934F935F936F937F93D8
S11302D08F939F93AF93BF93EF93FF9380912201EA
S11302E08F5F8C3319F08093220116C01092220183
S11302F0809120018F5F8C3319F0809320010CC012
S113030010922001809123018F5F883119F080932E
S1130310230102C0109223018091000126DFFF9186
S1130320EF91BF91AF919F918F917F916F915F9169
S11303304F913F912F910F900FBE0F901F901895E2
S11303400895109200018FE3FBDE809100010DDF20
S1130350089586E0809300018FE3F2DE809100012E
S113036004DF08958FE380930001FFDE0895109267
S113037000018FE3E5DE81E091E025DF089510922E
S113038000018FE3DDDE85E091E01DDF089510922A
S113039000018FE3D5DE89E091E015DF0895109226
S11303A000018FE3CDDE8FE091E00DDF08958F3FF4
S11303B081F080931D01E82FF0E0EE0FFF1FEE0F98
S11303C0FF1FEE0FFF1FEC5DFE4F0190F081E02D4B
S11303D009950895E4E2F1E044EE51E020EA31E0C9
S11303E08FEF318320838283838384838583868311
S11303F087833896E417F507A1F7E4E2F1E081EA90
S113040091E09183808381E0848329EA31E031871C
S11304102087128692E0948722EB31E0318B208B87
S1130420828B83E0848B27EB31E0318F208F928F96
S113043095E0938F24E0248F2FEB31E031A320A3A8
S113044082A327EC31E031A720A782A787E083A706
S113045086E084A72FEC31E031AB20AB92AB08955A
S1070460F894FFCF3A
S11304643F66756E0073657400736E616B65006F2F
S1090474746865720000CB
S9030000FC
