:1000000019C028C027C026C025C024C023C0E6C010
:1000100021C020C01FC01EC01DC01CC01BC01AC0F4
:1000200019C018C017C016C015C014C013C012C024
:1000300011C010C011241FBECFEFD2E0DEBFCDBF74
:1000400021E0A0E0B1E001C01D92AE30B207E1F7BF
:100050005DD00FC1D5CF9DEC899F912D1124969530
:100060009695969520E1929FA0011124990F292F32
:10007000220F220F920F891B842B089583B1877062
:10008000809307010895E0E0F1E020E030E090E0A7
:10009000AC01022E02C0559547950A94E2F740FD47
:1000A00010822F5F3F4F31962630310589F7089532
:1000B000CF93C82F80FF05C080910C01CCDF8093C7
:1000C0000501C1FF05C080910A01C5DF80930401CD
:1000D000C2FF05C080910D01BEDF80930301C3FF05
:1000E00005C080910B01B7DF80930201C4FF05C0FA
:1000F00080910901B0DF80930101C5FF05C08091A7
:100100000801A9DF80930001CF9108958FE388B99A
:1001100087B91BB88FEF8AB985B984B98FE3B3DF8C
:1001200081E18093080189E0809309018DE180934A
:100130000B0182E080930D018BE180930A0188E13D
:1001400080930C0183B7816083BF8CED8093B300F3
:10015000E0E7F0E0808182608083E0EBF0E0808186
:1001600082608083E1EBF0E0808187608083789417
:10017000CC24C394D12C0F2EFFE39F2EF02D0F2EF5
:10018000F0E0EF2EF1E0FF2EF02D07E011E0C0E0EF
:10019000D1E0A12CB12CC6010A2C02C0880F991FF6
:1001A0000A94E2F780958F7388B989918BB984E1BD
:1001B00090E00197F1F71BB898B884E190E00197BF
:1001C000F1F75CDFF8018081F7018283FFEFAF1A5E
:1001D000BF0A86E0A816B104F1F6D9CF1F920F929C
:1001E0000FB60F9211242F933F934F935F936F930A
:1001F0007F938F939F93AF93BF93EF93FF938091E0
:100200000C018F5F8C3319F080930C0116C0109293
:100210000C0180910A018F5F8C3319F080930A01E1
:100220000CC010920A0180910D018F5F883119F086
:1002300080930D0102C010920D0180910601882368
:1002400029F0813029F48FE333DF02C086E030DF0C
:10025000FF91EF91BF91AF919F918F917F916F919E
:100260005F914F913F912F910F900FBE0F901F9074
:060270001895F894FFCF81
:00000001FF
