:020000020000FC
:100000000C946C010C9434000C9434000C94340067
:100010000C9434000C9434000C9434000C94340090
:100020000C9434000C9434000C9434000C9435007F
:100030000C9434000C9434000C94C9000C943400DB
:100040000C9434000C9434000C9434000C94340060
:100050000C9434000C9434000C9434000C94340050
:100060000C9434000C94340018950E9438001895B4
:10007000022D0F70122D107F093021F00395012BF6
:10008000202E0895103521F000E1100F212E089543
:100090002224032D0F70132D107F093021F00395BA
:1000A000012B302E0895103521F000E1100F312E74
:1000B00008953324042D033269F00F70142D107F3E
:1000C000093021F00395012B402E089500E1100F17
:1000D000412E08954424062D0130C1F00330B1F0C3
:1000E0000530A1F0073091F0083081F0003171F057
:1000F000023161F0043071F0063061F0093051F0E6
:10010000013141F0072D037069F408C0052D01335A
:10011000D1F00CC0052D0033B1F008C0052D093217
:1001200091F004C0052D083271F000C00F70152D3C
:10013000107F093021F00395012B502E089500E126
:10014000100F512E089501E0502E062D023169F056
:100150000F70162D107F093021F00395012B602EB2
:10016000089500E1100F612E089501E0602E072D23
:10017000093969F00F70172D107F093021F00395B0
:10018000012B702E089500E1100F712E0895772431
:1001900008953395343009F430E000E0142D1295C1
:1001A000232F222319F016952A95FBCF10FB00F977
:1001B000142D232F222319F016952A95FBCF10FB1F
:1001C00001F9132D1295232F222319F016952A9544
:1001D000FBCF10FB02F9132D232F222319F01695C4
:1001E0002A95FBCF10FB03F9122D1295232F222302
:1001F00019F016952A95FBCF10FB04F9122D232F29
:10020000222319F016952A95FBCF10FB05F90095CE
:100210000F7311E0232F222319F0110F2A95FBCF22
:10022000106320E328B90BB918B9142F107C06B15C
:10023000009504FB46F905FB47F9112309F01895D1
:10024000007309F4189504FF0C944F01042F0F70EC
:10025000013031F42AE00E9459002A95E1F71895FF
:10026000023019F40E9459001895033031F42AE045
:100270000E9448002A95E1F71895043019F40E946D
:1002800048001895053031F42AE00E9438002A957C
:10029000E1F71895063011F40E943800189543953F
:1002A000042F0F70073099F0013009F0189508E01D
:1002B0000093810000E0702E01E0602E01E0502EDE
:1002C00000E0402E00E0302E00E0202E1895407F08
:1002D0000BE00093810018950FEF0DBF08E00EBFF3
:1002E00001E003BF1DE308E010938900009388003C
:1002F00002E000936F000BE00093810033E008EC14
:1003000007BD02E000936E0002E004BD02E005BDFF
:1003100000E308B90FE007B90FEF0AB900E00BB925
:1003200007E1702E01E1602E01E0502E02E1402E27
:0E03300004E3302E06E5202E78948895FECF4B
:00000001FF
