:1000000026C040C03FC03EC03DC03CC03BC03EC11A
:1000100039C038C037C036C035C034C033C032C034
:1000200031C030C02FC02EC02DC02CC02BC02AC064
:1000300029C028C080C0888C84C8CCC4484CA0E0AB
:10004000A8ACA4E8ECE4686CA2E24EAAAEA6112427
:100050001FBECFEFD2E0DEBFCDBF11E0A0E0B1E028
:10006000E6E1FAE002C005900D92A032B107D9F79F
:1000700022E0A0E2B1E001C01D92A638B207E1F78C
:10008000C7D0C7C4BDCF6AE091D4292F30E1839F88
:10009000C0011124822B089523B12095277040912F
:1000A0002001422781F130E050E0832F90E0BA0137
:1000B000032E02C0759567950A94E2F760FD02C0B1
:1000C0003F5FF3CF2093200130E0082E02C035952A
:1000D00027950A94E2F730915F0120FF0AC02CE0D7
:1000E000329F800D911D1124FC01E05AFE4F868144
:1000F00009C02CE0329F800D911D1124FC01E05AB3
:10010000FE4F8185BCC208951BB88FE388B921E0FA
:1001100030E00090210102C0220F331F0A94E2F761
:10012000822788B9E0912101F0E0EE5DFE4F8081E9
:100130008BB98091210190E0019666E070E042D495
:10014000809321010895E2E2F1E020E030E090E0C8
:10015000AC01022E02C0559547950A94E2F740FD86
:1001600010822F5F3F4F31962630310589F7089571
:10017000CF93C82F80FF05C08091840284DF8093D5
:100180002701C1FF05C0809182027DDF8093260197
:10019000C2FF05C08091850276DF80932501C3FFF1
:1001A00005C0809183026FDF80932401C4FF05C0E6
:1001B0008091810268DF80932301C5FF05C0809193
:1001C000800261DF80932201CF910895CF93DF9366
:1001D000EC01FC0101900020E9F731979E2F9C1B58
:1001E000973008F096E04C2F22E231E0AC2FBD2F83
:1001F0008A2F841B891748F4ED91F0E0ED52F0400E
:10020000E491E901E9939E01F3CFDF91CF91089545
:100210008FE388B987B91BB88FEF8AB985B984B9DC
:100220008FE391DF81E1809380028BE080938102F4
:1002300085E18093830282E08093850283E080934E
:1002400082021092840283B7816083BF8BE980931E
:10025000B300809170008260809370008091B00044
:1002600082608093B0008091B10084608093B1007F
:1002700016D28DE004D27894C6E0D0E084E190E01C
:100280000197F1F741DF2197C9F7F6CF1F920F923F
:100290000FB60F9211242F933F934F935F936F9359
:1002A0007F938F939F93AF93BF93EF93FF9324D349
:1002B000F3DEE9D1FF91EF91BF91AF919F918F91C3
:1002C0007F916F915F914F913F912F910F900FBE52
:1002D0000F901F90189510925D01ECE2F1E088E01C
:1002E00082A789E083A78AE084A78BE085A785E0C1
:1002F00086A784E087A783E0808397E090935E01E0
:1003000080935C018EE0BBC180915C0190E003961C
:100310008370992780935C018EE0B1C180915C016C
:1003200090E001968370992780935C018EE0A7C1CD
:100330007F928F929F92AF92BF92CF92DF92EF9275
:10034000FF920F931F93CF93DF938FE3FCDEB09068
:100350005E0120915D0130E0205D3F4F40E060E3B1
:10036000E62EF12C78E1A72EE6E09E2E03E010E0C9
:10037000CC24C394D12CA3E08A2E4B15A1F1C90142
:10038000B70120D3FC01E45DFE4F7080872D6A2DFC
:100390000DD3892F692D0AD3B801681B7109E601B5
:1003A00001C0CC0F6A95EAF777E1872D771530F019
:1003B0008695682DFBD2E92FF0E008C090E04897C1
:1003C00095958795B801FED2FC013396EE5DFE4F00
:1003D000808170FC02C0C295C07FC82BC0834F5F74
:1003E00021503109CACFDF91CF911F910F91FF901A
:1003F000EF90DF90CF90BF90AF909F908F907F90C5
:1004000008950F931F93CF93DF93809128018F5FFF
:10041000843639F080932801DF91CF911F910F919D
:1004200008951092280180915C0130915D01811145
:1004300008C0E32FF0E0E45DFE4F8081863048F590
:1004400022C0813059F4E32FF0E0E45DFE4F2081BB
:10045000822F66E0ABD29530F1F415C0823041F4C2
:10046000E32FF0E0E45DFE4F80818A32B0F00BC0F4
:100470008330A9F4E32FF0E0E45DFE4F808166E075
:1004800095D291110CC081E1DF91CF911F910F9115
:10049000F6C02AEF0AC02F5F09C026E006C0E32F8E
:1004A000F0E0E45DFE4F80812FEF280F832F90E076
:1004B0000196C0E3D0E0BE0185D2FC0180935D01CE
:1004C000822F90E0C096BE017DD2D82FDF01A45DBF
:1004D000BE4F8C93C0915E019F01215D3F4F41E073
:1004E00000E310E04C1768F4C901B8016BD2FC01BD
:1004F000E45DFE4F808121503109D81721F24F5F12
:10050000F1CFDF91CF911F910F9112CF8BE691E048
:100510009093FD018093FC0181E092E090930B02A7
:1005200080930A028FE080930E0280E18093100294
:1005300084E891E090931502809314028EE891E094
:10054000909321028093200280E093E090932D020B
:1005500080932C0281E091E09093310280933002ED
:1005600085E08093330208950895109200018FE38F
:10057000EADD80910001FCCD86E0809300018FE3ED
:10058000E2DD80910001F4CD8FE380930001F0CD96
:1005900080912901833081F030F4813059F082302C
:1005A00081F4C6D10EC0853059F040F0863049F450
:1005B000F1D107C0B3D105C0C8D103C0D3D101C0A8
:1005C000DDD180910001D4CD80912901833081F06B
:1005D00030F4813059F0823081F454D10EC085302E
:1005E00059F040F0863049F47CD107C041D105C0B4
:1005F00055D103C060D101C069D180910001B8CD4F
:10060000CF93DF93EC01109200018FE39CDDCE01CC
:10061000DF91CF91DBCD80935F019CE0899FD0017A
:100620001124A05ABE4FED91FC91119714968D9113
:100630009C91159709948091290191E0980F9093CE
:1006400029018630B0F48FE37EDD8091290126E018
:1006500030E0281B310981E090E001C0880F2A9525
:10066000EAF78093000184DD81E080932A018AE02B
:1006700005C01092290110922A0187E0CCCF8F3F4C
:1006800009F0C9CF0895E0915F018CE0E89FF00187
:100690001124E05AFE4F0280F381E02D0994FF926D
:1006A0000F931F93CF93DF93E0E6F1E024EB32E06A
:1006B0008FEF3183208333832283868387838087F0
:1006C0008187828783873C9692E0E038F90789F733
:1006D00085EB92E0909361018093600181E08093CB
:1006E00068012CEB32E030936D0120936C01109285
:1006F000720192E09093740124EC32E0309379011E
:100700002093780180937E0183E080938001C0E094
:10071000D3E0D0938501C093840126E031E030938B
:1007200089012093880190938A0195E0F92EF09237
:100730008B0104E000938C01D0939101C093900150
:100740002AE031E030939501209394018093960143
:1007500017E010939701D0939D01C0939C012EE068
:1007600031E03093A1012093A0018093A2018DE09C
:100770008093A30186E08093A401C8DED093A901F1
:10078000C093A80124E131E03093AD012093AC0186
:10079000F092AE01D093B501C093B4018AE191E02B
:1007A0009093B9018093B8010093BA0189E08093D6
:1007B000BB0198E09093BC01D093C101C093C001EC
:1007C0003093C5012093C4011093C6012BE133E09F
:1007D0003093CD012093CC0124EB32E03093D9014A
:1007E0002093D8019BE09093DE018093DF018CE0A1
:1007F0008093E00188EC92E09093E5018093E4011E
:100800008AE08093ED0124EE32E03093F1012093F1
:10081000F0018093FB01DF91CF911F910F91FF9029
:10082000089580918102982F9D7F9130C9F0853085
:10083000B9F099EF980F923098F08A3089F08C30A7
:1008400079F0823079F420918002822F837061F4F4
:10085000822F64E6ABD0911109C0222339F004C085
:100860008FE108958EE108958CE108958DE108955A
:100870008091800290E0019664E670E0A3D08093BE
:1008800080020895809181028F5F8D3019F08093EE
:100890008102089581E080938102EACFC2DF9091C6
:1008A0008302891304C081E080938302EBCF9F5FB2
:1008B000909383020895809185028F5F883119F0AB
:1008C00080938502089510928502E8CF809182027C
:1008D0008F5F8C3319F08093820208951092820208
:1008E000EACF809184028F5F8C3319F08093840269
:1008F000089510928402EACF80912B018F5F843695
:1009000019F080932B01089510922B0180912A01F8
:10091000811101C0E6DF809100012ACC8091800224
:1009200090E0019764E670E04DD0809380020895D6
:10093000809181029FEF980F813019F0909381028E
:1009400008958CE080938102E9CF809183029FEF2C
:10095000980F90938302813021F4EADF62DF809365
:100960008302089580918502882321F0815080932D
:100970008502089587E180938502E7CF8091820206
:10098000882321F081508093820208958BE3809325
:100990008202E8CF80918402882321F081508093E5
:1009A000840208958BE380938402E8CF991B79E059
:1009B00004C0991F961708F0961B881F7A95C9F7EF
:1009C0008095089597FB072E16F4009406D077FDC6
:1009D00008D00BD007FC05D03EF4909581959F4F31
:1009E0000895709561957F4F0895AA1BBB1B51E137
:1009F00007C0AA1FBB1FA617B70710F0A61BB70B8F
:100A0000881F991F5A95A9F780959095BC01CD0133
:060A10000895F894FFCFE9
:100A16003F6F7665720066756E0073657400736E5F
:100A2600616B65006F746865720074696D650000BE
:00000001FF
